{
  "transactions": [
    {
      "hash": "0x416e29ce551c7f6a98ef56f33aae8df1fac21803884e23bcc7e2df54f69c0f9b",
      "transactionType": "CALL",
      "contractName": null,
      "contractAddress": "0xeaada411f2600570796c341552b9869da708a28b",
      "function": "addValidator(uint16)",
      "arguments": [
        "188"
      ],
      "transaction": {
        "from": "0x0eb5446a08a735b3448504ad44fdad995f1eb6b2",
        "to": "0xeaada411f2600570796c341552b9869da708a28b",
        "gas": "0x3add0",
        "value": "0x0",
        "input": "0xc7e6d61c00000000000000000000000000000000000000000000000000000000000000bc",
        "nonce": "0xe",
        "chainId": "0x1"
      },
      "additionalContracts": [],
      "isFixedGasLimit": false
    },
    {
      "hash": "0xd5ffd45219ef17108049664e5430191e38add7d4325f940f6c99874826bab292",
      "transactionType": "CALL",
      "contractName": null,
      "contractAddress": "0xeaada411f2600570796c341552b9869da708a28b",
      "function": "addValidator(uint16)",
      "arguments": [
        "92"
      ],
      "transaction": {
        "from": "0x0eb5446a08a735b3448504ad44fdad995f1eb6b2",
        "to": "0xeaada411f2600570796c341552b9869da708a28b",
        "gas": "0x23d4e",
        "value": "0x0",
        "input": "0xc7e6d61c000000000000000000000000000000000000000000000000000000000000005c",
        "nonce": "0xf",
        "chainId": "0x1"
      },
      "additionalContracts": [],
      "isFixedGasLimit": false
    },
    {
      "hash": "0xc446589c729c724ad491cdad8e0adcf6dd7c37cb8bf3f1fcd40901ce77c44c05",
      "transactionType": "CALL",
      "contractName": null,
      "contractAddress": "0xeaada411f2600570796c341552b9869da708a28b",
      "function": "updateValidatorTargetShare(uint16[],uint8[])",
      "arguments": [
        "[188, 92]",
        "[80, 20]"
      ],
      "transaction": {
        "from": "0x0eb5446a08a735b3448504ad44fdad995f1eb6b2",
        "to": "0xeaada411f2600570796c341552b9869da708a28b",
        "gas": "0x16ab4",
        "value": "0x0",
        "input": "0x2dd11a0a000000000000000000000000000000000000000000000000000000000000004000000000000000000000000000000000000000000000000000000000000000a0000000000000000000000000000000000000000000000000000000000000000200000000000000000000000000000000000000000000000000000000000000bc000000000000000000000000000000000000000000000000000000000000005c000000000000000000000000000000000000000000000000000000000000000200000000000000000000000000000000000000000000000000000000000000500000000000000000000000000000000000000000000000000000000000000014",
        "nonce": "0x10",
        "chainId": "0x1"
      },
      "additionalContracts": [],
      "isFixedGasLimit": false
    },
    {
      "hash": "0x1ed9ecad0fa240a532bd3be6b8ef0d8edeed79237aa808ec79f1d758ee4c0332",
      "transactionType": "CALL",
      "contractName": null,
      "contractAddress": "0x455e53cbb86018ac2b8092fdcd39d8444affc3f6",
      "function": "approve(address,uint256)",
      "arguments": [
        "0xEaadA411F2600570796c341552b9869DA708a28B",
        "100000000000000000000"
      ],
      "transaction": {
        "from": "0x0eb5446a08a735b3448504ad44fdad995f1eb6b2",
        "to": "0x455e53cbb86018ac2b8092fdcd39d8444affc3f6",
        "gas": "0xf87c",
        "value": "0x0",
        "input": "0x095ea7b3000000000000000000000000eaada411f2600570796c341552b9869da708a28b0000000000000000000000000000000000000000000000056bc75e2d63100000",
        "nonce": "0x11",
        "chainId": "0x1"
      },
      "additionalContracts": [],
      "isFixedGasLimit": false
    },
    {
      "hash": "0x039db6e459f5f86012d45467de06be46760749565d268473cc5bf57a91c2ecc7",
      "transactionType": "CALL",
      "contractName": null,
      "contractAddress": "0xeaada411f2600570796c341552b9869da708a28b",
      "function": "buySPOL(uint256)",
      "arguments": [
        "100000000000000000000"
      ],
      "transaction": {
        "from": "0x0eb5446a08a735b3448504ad44fdad995f1eb6b2",
        "to": "0xeaada411f2600570796c341552b9869da708a28b",
        "gas": "0xc5ac2",
        "value": "0x0",
        "input": "0xbb7914a30000000000000000000000000000000000000000000000056bc75e2d63100000",
        "nonce": "0x12",
        "chainId": "0x1"
      },
      "additionalContracts": [],
      "isFixedGasLimit": false
    },
    {
      "hash": "0xbfee9be3d3d6befbf962109737711bab763a608ea1d31f0de0cdb53ed97155fc",
      "transactionType": "CALL",
      "contractName": null,
      "contractAddress": "0x3b790d651e950497c7723d47b24e6f61534f7969",
      "function": "transfer(address,uint256)",
      "arguments": [
        "0x000000000000000000000000000000000000dEaD",
        "100000000000000000000"
      ],
      "transaction": {
        "from": "0x0eb5446a08a735b3448504ad44fdad995f1eb6b2",
        "to": "0x3b790d651e950497c7723d47b24e6f61534f7969",
        "gas": "0x11616",
        "value": "0x0",
        "input": "0xa9059cbb000000000000000000000000000000000000000000000000000000000000dead0000000000000000000000000000000000000000000000056bc75e2d63100000",
        "nonce": "0x13",
        "chainId": "0x1"
      },
      "additionalContracts": [],
      "isFixedGasLimit": false
    }
  ],
  "receipts": [
    {
      "status": "0x1",
      "cumulativeGasUsed": "0x1bc544a",
      "logs": [
        {
          "address": "0xeaada411f2600570796c341552b9869da708a28b",
          "topics": [
            "0x9015c2eaa6de7af24c629710f26f78b217803b3ffb5f0fb05aca18ad1ea1e69a"
          ],
          "data": "0x00000000000000000000000000000000000000000000000000000000000000bc",
          "blockHash": "0xd2e4458757603ff70a58482fa025b7177c98ba985a13fd81d8721eb476506cd4",
          "blockNumber": "0x175d406",
          "blockTimestamp": "0x69988937",
          "transactionHash": "0xbfee9be3d3d6befbf962109737711bab763a608ea1d31f0de0cdb53ed97155fc",
          "transactionIndex": "0x12c",
          "logIndex": "0x340",
          "removed": false
        }
      ],
      "logsBloom": "0x00000000000000000000000000000000000000000000000000000000000000000000000000000000000000000000000000000000000000000000000000000020000000000000000000000000000000000000000000000000000000000000000000000000000000000000000000000000100000000000000000000000000000000000000000000000000000000000000000000000000000000000000000000000000000000000000000000000000000000000000000000000000000002000000000000000000000000000041000000000000000000000000000000000000000000000000000100000000000000000000000000000000000000000000000000000",
      "type": "0x2",
      "transactionHash": "0xbfee9be3d3d6befbf962109737711bab763a608ea1d31f0de0cdb53ed97155fc",
      "transactionIndex": "0x12c",
      "blockHash": "0xd2e4458757603ff70a58482fa025b7177c98ba985a13fd81d8721eb476506cd4",
      "blockNumber": "0x175d406",
      "gasUsed": "0x2a9dc",
      "effectiveGasPrice": "0xaab316b",
      "blobGasUsed": "0x0",
      "from": "0x0eb5446a08a735b3448504ad44fdad995f1eb6b2",
      "to": "0xeaada411f2600570796c341552b9869da708a28b",
      "contractAddress": null
    },
    {
      "status": "0x1",
      "cumulativeGasUsed": "0x1bf9a2c",
      "logs": [
        {
          "address": "0xeaada411f2600570796c341552b9869da708a28b",
          "topics": [
            "0x9015c2eaa6de7af24c629710f26f78b217803b3ffb5f0fb05aca18ad1ea1e69a"
          ],
          "data": "0x000000000000000000000000000000000000000000000000000000000000005c",
          "blockHash": "0xd2e4458757603ff70a58482fa025b7177c98ba985a13fd81d8721eb476506cd4",
          "blockNumber": "0x175d406",
          "blockTimestamp": "0x69988937",
          "transactionHash": "0x416e29ce551c7f6a98ef56f33aae8df1fac21803884e23bcc7e2df54f69c0f9b",
          "transactionIndex": "0x132",
          "logIndex": "0x342",
          "removed": false
        }
      ],
      "logsBloom": "0x00000000000000000000000000000000000000000000000000000000000000000000000000000000000000000000000000000000000000000000000000000020000000000000000000000000000000000000000000000000000000000000000000000000000000000000000000000000100000000000000000000000000000000000000000000000000000000000000000000000000000000000000000000000000000000000000000000000000000000000000000000000000000002000000000000000000000000000041000000000000000000000000000000000000000000000000000100000000000000000000000000000000000000000000000000000",
      "type": "0x2",
      "transactionHash": "0x416e29ce551c7f6a98ef56f33aae8df1fac21803884e23bcc7e2df54f69c0f9b",
      "transactionIndex": "0x132",
      "blockHash": "0xd2e4458757603ff70a58482fa025b7177c98ba985a13fd81d8721eb476506cd4",
      "blockNumber": "0x175d406",
      "gasUsed": "0x19f10",
      "effectiveGasPrice": "0xaab316b",
      "blobGasUsed": "0x0",
      "from": "0x0eb5446a08a735b3448504ad44fdad995f1eb6b2",
      "to": "0xeaada411f2600570796c341552b9869da708a28b",
      "contractAddress": null
    },
    {
      "status": "0x1",
      "cumulativeGasUsed": "0x1c70eca",
      "logs": [
        {
          "address": "0xeaada411f2600570796c341552b9869da708a28b",
          "topics": [
            "0x278fc29ecf3ec7b2b3e9bbcd3122772d466ec0e657e0e42f8a421367e5c5691f"
          ],
          "data": "0x00000000000000000000000000000000000000000000000000000000000000bc0000000000000000000000000000000000000000000000000000000000000050",
          "blockHash": "0xd2e4458757603ff70a58482fa025b7177c98ba985a13fd81d8721eb476506cd4",
          "blockNumber": "0x175d406",
          "blockTimestamp": "0x69988937",
          "transactionHash": "0xc446589c729c724ad491cdad8e0adcf6dd7c37cb8bf3f1fcd40901ce77c44c05",
          "transactionIndex": "0x140",
          "logIndex": "0x349",
          "removed": false
        },
        {
          "address": "0xeaada411f2600570796c341552b9869da708a28b",
          "topics": [
            "0x278fc29ecf3ec7b2b3e9bbcd3122772d466ec0e657e0e42f8a421367e5c5691f"
          ],
          "data": "0x000000000000000000000000000000000000000000000000000000000000005c0000000000000000000000000000000000000000000000000000000000000014",
          "blockHash": "0xd2e4458757603ff70a58482fa025b7177c98ba985a13fd81d8721eb476506cd4",
          "blockNumber": "0x175d406",
          "blockTimestamp": "0x69988937",
          "transactionHash": "0xc446589c729c724ad491cdad8e0adcf6dd7c37cb8bf3f1fcd40901ce77c44c05",
          "transactionIndex": "0x140",
          "logIndex": "0x34a",
          "removed": false
        }
      ],
      "logsBloom": "0x00000000000000000000000000000000000000000000000000000000000000000000000000000000000000000000000000000000000000000000000000000020000000000000000000000000000000000000000000000000000000000000000000000000000000000080000000000000100000000000000000000000000000000000000000000000000000000000000000000000000000000000000000000000000000000000000100000000000000000000000000000000000000000000000000000000000000000000000000004000000000000000000000000000000000000000000000100000000000000000000000000000000000000000000000000000",
      "type": "0x2",
      "transactionHash": "0xc446589c729c724ad491cdad8e0adcf6dd7c37cb8bf3f1fcd40901ce77c44c05",
      "transactionIndex": "0x140",
      "blockHash": "0xd2e4458757603ff70a58482fa025b7177c98ba985a13fd81d8721eb476506cd4",
      "blockNumber": "0x175d406",
      "gasUsed": "0xf801",
      "effectiveGasPrice": "0xaab316b",
      "blobGasUsed": "0x0",
      "from": "0x0eb5446a08a735b3448504ad44fdad995f1eb6b2",
      "to": "0xeaada411f2600570796c341552b9869da708a28b",
      "contractAddress": null
    },
    {
      "status": "0x1",
      "cumulativeGasUsed": "0x1cd9770",
      "logs": [
        {
          "address": "0x455e53cbb86018ac2b8092fdcd39d8444affc3f6",
          "topics": [
            "0x8c5be1e5ebec7d5bd14f71427d1e84f3dd0314c0f7b2291e5b200ac8c7c3b925",
            "0x0000000000000000000000000eb5446a08a735b3448504ad44fdad995f1eb6b2",
            "0x000000000000000000000000eaada411f2600570796c341552b9869da708a28b"
          ],
          "data": "0x0000000000000000000000000000000000000000000000056bc75e2d63100000",
          "blockHash": "0xd2e4458757603ff70a58482fa025b7177c98ba985a13fd81d8721eb476506cd4",
          "blockNumber": "0x175d406",
          "blockTimestamp": "0x69988937",
          "transactionHash": "0xd5ffd45219ef17108049664e5430191e38add7d4325f940f6c99874826bab292",
          "transactionIndex": "0x142",
          "logIndex": "0x35b",
          "removed": false
        }
      ],
      "logsBloom": "0x01000000000000000000000000000000000000000000000000000000000000000000000000000000000000000000000000000000000000000000000000200000000000001000000000000000000004040000000000000000000000000000000000000000000000000000000000000080000000000000000000000000000000000000000000000000000000000000000000000000080000000000000000000000020000000000000000000000000000000000000000000000000000000000000000000000000000000000000000000000000000000000000000000000000000800010000000800000000000000000000000000000000000000000004000000000",
      "type": "0x2",
      "transactionHash": "0xd5ffd45219ef17108049664e5430191e38add7d4325f940f6c99874826bab292",
      "transactionIndex": "0x142",
      "blockHash": "0xd2e4458757603ff70a58482fa025b7177c98ba985a13fd81d8721eb476506cd4",
      "blockNumber": "0x175d406",
      "gasUsed": "0xb3e7",
      "effectiveGasPrice": "0xaab316b",
      "blobGasUsed": "0x0",
      "from": "0x0eb5446a08a735b3448504ad44fdad995f1eb6b2",
      "to": "0x455e53cbb86018ac2b8092fdcd39d8444affc3f6",
      "contractAddress": null
    },
    {
      "status": "0x1",
      "cumulativeGasUsed": "0x1d68938",
      "logs": [
        {
          "address": "0x455e53cbb86018ac2b8092fdcd39d8444affc3f6",
          "topics": [
            "0x8c5be1e5ebec7d5bd14f71427d1e84f3dd0314c0f7b2291e5b200ac8c7c3b925",
            "0x0000000000000000000000000eb5446a08a735b3448504ad44fdad995f1eb6b2",
            "0x000000000000000000000000eaada411f2600570796c341552b9869da708a28b"
          ],
          "data": "0x0000000000000000000000000000000000000000000000000000000000000000",
          "blockHash": "0xd2e4458757603ff70a58482fa025b7177c98ba985a13fd81d8721eb476506cd4",
          "blockNumber": "0x175d406",
          "blockTimestamp": "0x69988937",
          "transactionHash": "0x1ed9ecad0fa240a532bd3be6b8ef0d8edeed79237aa808ec79f1d758ee4c0332",
          "transactionIndex": "0x143",
          "logIndex": "0x35c",
          "removed": false
        },
        {
          "address": "0x455e53cbb86018ac2b8092fdcd39d8444affc3f6",
          "topics": [
            "0xddf252ad1be2c89b69c2b068fc378daa952ba7f163c4a11628f55a4df523b3ef",
            "0x0000000000000000000000000eb5446a08a735b3448504ad44fdad995f1eb6b2",
            "0x000000000000000000000000eaada411f2600570796c341552b9869da708a28b"
          ],
          "data": "0x0000000000000000000000000000000000000000000000056bc75e2d63100000",
          "blockHash": "0xd2e4458757603ff70a58482fa025b7177c98ba985a13fd81d8721eb476506cd4",
          "blockNumber": "0x175d406",
          "blockTimestamp": "0x69988937",
          "transactionHash": "0x1ed9ecad0fa240a532bd3be6b8ef0d8edeed79237aa808ec79f1d758ee4c0332",
          "transactionIndex": "0x143",
          "logIndex": "0x35d",
          "removed": false
        },
        {
          "address": "0x210752a388f92c9520e8921d58f7682bd2246138",
          "topics": [
            "0xddf252ad1be2c89b69c2b068fc378daa952ba7f163c4a11628f55a4df523b3ef",
            "0x0000000000000000000000000000000000000000000000000000000000000000",
            "0x000000000000000000000000eaada411f2600570796c341552b9869da708a28b"
          ],
          "data": "0x000000000000000000000000000000000000000000000002b5e3af16b1880000",
          "blockHash": "0xd2e4458757603ff70a58482fa025b7177c98ba985a13fd81d8721eb476506cd4",
          "blockNumber": "0x175d406",
          "blockTimestamp": "0x69988937",
          "transactionHash": "0x1ed9ecad0fa240a532bd3be6b8ef0d8edeed79237aa808ec79f1d758ee4c0332",
          "transactionIndex": "0x143",
          "logIndex": "0x35e",
          "removed": false
        },
        {
          "address": "0xa59c847bd5ac0172ff4fe912c5d29e5a71a7512b",
          "topics": [
            "0xc9afff0972d33d68c8d330fe0ebd0e9f54491ad8c59ae17330a9206f280f0865",
            "0x00000000000000000000000000000000000000000000000000000000000000bc",
            "0x000000000000000000000000eaada411f2600570796c341552b9869da708a28b",
            "0x000000000000000000000000000000000000000000000002b5e3af16b1880000"
          ],
          "data": "0x000000000000000000000000000000000000000000000002b5e3af16b1880000",
          "blockHash": "0xd2e4458757603ff70a58482fa025b7177c98ba985a13fd81d8721eb476506cd4",
          "blockNumber": "0x175d406",
          "blockTimestamp": "0x69988937",
          "transactionHash": "0x1ed9ecad0fa240a532bd3be6b8ef0d8edeed79237aa808ec79f1d758ee4c0332",
          "transactionIndex": "0x143",
          "logIndex": "0x35f",
          "removed": false
        },
        {
          "address": "0xa59c847bd5ac0172ff4fe912c5d29e5a71a7512b",
          "topics": [
            "0x35af9eea1f0e7b300b0a14fae90139a072470e44daa3f14b5069bebbc1265bda",
            "0x00000000000000000000000000000000000000000000000000000000000000bc",
            "0x00000000000000000000000000000000000000000000000000000000000000e7",
            "0x000000000000000000000000000000000000000000000da4c0102bf913fed782"
          ],
          "data": "0x",
          "blockHash": "0xd2e4458757603ff70a58482fa025b7177c98ba985a13fd81d8721eb476506cd4",
          "blockNumber": "0x175d406",
          "blockTimestamp": "0x69988937",
          "transactionHash": "0x1ed9ecad0fa240a532bd3be6b8ef0d8edeed79237aa808ec79f1d758ee4c0332",
          "transactionIndex": "0x143",
          "logIndex": "0x360",
          "removed": false
        },
        {
          "address": "0xa59c847bd5ac0172ff4fe912c5d29e5a71a7512b",
          "topics": [
            "0x0f9ccdda16b467e719059c85ebd8383fcb7f8ffa5576629fe3b842836e04dad1",
            "0x00000000000000000000000000000000000000000000000000000000000000bc",
            "0x000000000000000000000000eaada411f2600570796c341552b9869da708a28b",
            "0x000000000000000000000000000000000000000000000002b5e3af16b1880000"
          ],
          "data": "0x",
          "blockHash": "0xd2e4458757603ff70a58482fa025b7177c98ba985a13fd81d8721eb476506cd4",
          "blockNumber": "0x175d406",
          "blockTimestamp": "0x69988937",
          "transactionHash": "0x1ed9ecad0fa240a532bd3be6b8ef0d8edeed79237aa808ec79f1d758ee4c0332",
          "transactionIndex": "0x143",
          "logIndex": "0x361",
          "removed": false
        },
        {
          "address": "0x455e53cbb86018ac2b8092fdcd39d8444affc3f6",
          "topics": [
            "0xddf252ad1be2c89b69c2b068fc378daa952ba7f163c4a11628f55a4df523b3ef",
            "0x000000000000000000000000eaada411f2600570796c341552b9869da708a28b",
            "0x0000000000000000000000005e3ef299fddf15eaa0432e6e66473ace8c13d908"
          ],
          "data": "0x000000000000000000000000000000000000000000000002b5e3af16b1880000",
          "blockHash": "0xd2e4458757603ff70a58482fa025b7177c98ba985a13fd81d8721eb476506cd4",
          "blockNumber": "0x175d406",
          "blockTimestamp": "0x69988937",
          "transactionHash": "0x1ed9ecad0fa240a532bd3be6b8ef0d8edeed79237aa808ec79f1d758ee4c0332",
          "transactionIndex": "0x143",
          "logIndex": "0x362",
          "removed": false
        },
        {
          "address": "0xd94f21ef2d3852125c9eabea4de6db5bf22d3e9c",
          "topics": [
            "0xddf252ad1be2c89b69c2b068fc378daa952ba7f163c4a11628f55a4df523b3ef",
            "0x0000000000000000000000000000000000000000000000000000000000000000",
            "0x000000000000000000000000eaada411f2600570796c341552b9869da708a28b"
          ],
          "data": "0x000000000000000000000000000000000000000000000002b5e3af16b1880000",
          "blockHash": "0xd2e4458757603ff70a58482fa025b7177c98ba985a13fd81d8721eb476506cd4",
          "blockNumber": "0x175d406",
          "blockTimestamp": "0x69988937",
          "transactionHash": "0x1ed9ecad0fa240a532bd3be6b8ef0d8edeed79237aa808ec79f1d758ee4c0332",
          "transactionIndex": "0x143",
          "logIndex": "0x363",
          "removed": false
        },
        {
          "address": "0xa59c847bd5ac0172ff4fe912c5d29e5a71a7512b",
          "topics": [
            "0xc9afff0972d33d68c8d330fe0ebd0e9f54491ad8c59ae17330a9206f280f0865",
            "0x000000000000000000000000000000000000000000000000000000000000005c",
            "0x000000000000000000000000eaada411f2600570796c341552b9869da708a28b",
            "0x000000000000000000000000000000000000000000000002b5e3af16b1880000"
          ],
          "data": "0x000000000000000000000000000000000000000000000002b5e3af16b1880000",
          "blockHash": "0xd2e4458757603ff70a58482fa025b7177c98ba985a13fd81d8721eb476506cd4",
          "blockNumber": "0x175d406",
          "blockTimestamp": "0x69988937",
          "transactionHash": "0x1ed9ecad0fa240a532bd3be6b8ef0d8edeed79237aa808ec79f1d758ee4c0332",
          "transactionIndex": "0x143",
          "logIndex": "0x364",
          "removed": false
        },
        {
          "address": "0xa59c847bd5ac0172ff4fe912c5d29e5a71a7512b",
          "topics": [
            "0x35af9eea1f0e7b300b0a14fae90139a072470e44daa3f14b5069bebbc1265bda",
            "0x000000000000000000000000000000000000000000000000000000000000005c",
            "0x00000000000000000000000000000000000000000000000000000000000001ae",
            "0x0000000000000000000000000000000000000000001816a17fa66a56a2233b8d"
          ],
          "data": "0x",
          "blockHash": "0xd2e4458757603ff70a58482fa025b7177c98ba985a13fd81d8721eb476506cd4",
          "blockNumber": "0x175d406",
          "blockTimestamp": "0x69988937",
          "transactionHash": "0x1ed9ecad0fa240a532bd3be6b8ef0d8edeed79237aa808ec79f1d758ee4c0332",
          "transactionIndex": "0x143",
          "logIndex": "0x365",
          "removed": false
        },
        {
          "address": "0xa59c847bd5ac0172ff4fe912c5d29e5a71a7512b",
          "topics": [
            "0x0f9ccdda16b467e719059c85ebd8383fcb7f8ffa5576629fe3b842836e04dad1",
            "0x000000000000000000000000000000000000000000000000000000000000005c",
            "0x000000000000000000000000eaada411f2600570796c341552b9869da708a28b",
            "0x000000000000000000000000000000000000000000000002b5e3af16b1880000"
          ],
          "data": "0x",
          "blockHash": "0xd2e4458757603ff70a58482fa025b7177c98ba985a13fd81d8721eb476506cd4",
          "blockNumber": "0x175d406",
          "blockTimestamp": "0x69988937",
          "transactionHash": "0x1ed9ecad0fa240a532bd3be6b8ef0d8edeed79237aa808ec79f1d758ee4c0332",
          "transactionIndex": "0x143",
          "logIndex": "0x366",
          "removed": false
        },
        {
          "address": "0x455e53cbb86018ac2b8092fdcd39d8444affc3f6",
          "topics": [
            "0xddf252ad1be2c89b69c2b068fc378daa952ba7f163c4a11628f55a4df523b3ef",
            "0x000000000000000000000000eaada411f2600570796c341552b9869da708a28b",
            "0x0000000000000000000000005e3ef299fddf15eaa0432e6e66473ace8c13d908"
          ],
          "data": "0x000000000000000000000000000000000000000000000002b5e3af16b1880000",
          "blockHash": "0xd2e4458757603ff70a58482fa025b7177c98ba985a13fd81d8721eb476506cd4",
          "blockNumber": "0x175d406",
          "blockTimestamp": "0x69988937",
          "transactionHash": "0x1ed9ecad0fa240a532bd3be6b8ef0d8edeed79237aa808ec79f1d758ee4c0332",
          "transactionIndex": "0x143",
          "logIndex": "0x367",
          "removed": false
        },
        {
          "address": "0x3b790d651e950497c7723d47b24e6f61534f7969",
          "topics": [
            "0xddf252ad1be2c89b69c2b068fc378daa952ba7f163c4a11628f55a4df523b3ef",
            "0x0000000000000000000000000000000000000000000000000000000000000000",
            "0x0000000000000000000000000eb5446a08a735b3448504ad44fdad995f1eb6b2"
          ],
          "data": "0x0000000000000000000000000000000000000000000000056bc75e2d63100000",
          "blockHash": "0xd2e4458757603ff70a58482fa025b7177c98ba985a13fd81d8721eb476506cd4",
          "blockNumber": "0x175d406",
          "blockTimestamp": "0x69988937",
          "transactionHash": "0x1ed9ecad0fa240a532bd3be6b8ef0d8edeed79237aa808ec79f1d758ee4c0332",
          "transactionIndex": "0x143",
          "logIndex": "0x368",
          "removed": false
        },
        {
          "address": "0xeaada411f2600570796c341552b9869da708a28b",
          "topics": [
            "0xbee1c00aa78821ec45fe3686f893ebd117bf6d97a7d5c926c4041c93334cf03d",
            "0x0000000000000000000000000eb5446a08a735b3448504ad44fdad995f1eb6b2"
          ],
          "data": "0x0000000000000000000000000000000000000000000000056bc75e2d631000000000000000000000000000000000000000000000000000056bc75e2d63100000",
          "blockHash": "0xd2e4458757603ff70a58482fa025b7177c98ba985a13fd81d8721eb476506cd4",
          "blockNumber": "0x175d406",
          "blockTimestamp": "0x69988937",
          "transactionHash": "0x1ed9ecad0fa240a532bd3be6b8ef0d8edeed79237aa808ec79f1d758ee4c0332",
          "transactionIndex": "0x143",
          "logIndex": "0x369",
          "removed": false
        },
        {
          "address": "0xeaada411f2600570796c341552b9869da708a28b",
          "topics": [
            "0x224ca655cc667083faf1f4801d73e7fcf269f4f638d87c62a3a400b5fb179b8a"
          ],
          "data": "0x0000000000000000000000000000000000000000000000056bc75e2d631000000000000000000000000000000000000000000000000000056bc75e2d63100000",
          "blockHash": "0xd2e4458757603ff70a58482fa025b7177c98ba985a13fd81d8721eb476506cd4",
          "blockNumber": "0x175d406",
          "blockTimestamp": "0x69988937",
          "transactionHash": "0x1ed9ecad0fa240a532bd3be6b8ef0d8edeed79237aa808ec79f1d758ee4c0332",
          "transactionIndex": "0x143",
          "logIndex": "0x36a",
          "removed": false
        }
      ],
      "logsBloom": "0x01000000020000000000000000000000000800000020000000000000800400000200000000020000000008800000000000000000000000000080000020200020000000001000000000000008000004040000001000000200100080000280000008000000020000000801000000080880100000010100000000000010000408000000000000000000000000080040000000000000081010000000000020000000020000000000000000000000100000000000000004000000001000810200000000000002000085000000001002000000002200000000002000000000000020800010000000900000000000000000000000000200400080028010084000000000",
      "type": "0x2",
      "transactionHash": "0x1ed9ecad0fa240a532bd3be6b8ef0d8edeed79237aa808ec79f1d758ee4c0332",
      "transactionIndex": "0x143",
      "blockHash": "0xd2e4458757603ff70a58482fa025b7177c98ba985a13fd81d8721eb476506cd4",
      "blockNumber": "0x175d406",
      "gasUsed": "0x8f1c8",
      "effectiveGasPrice": "0xaab316b",
      "blobGasUsed": "0x0",
      "from": "0x0eb5446a08a735b3448504ad44fdad995f1eb6b2",
      "to": "0xeaada411f2600570796c341552b9869da708a28b",
      "contractAddress": null
    },
    {
      "status": "0x1",
      "cumulativeGasUsed": "0x1d7528d",
      "logs": [
        {
          "address": "0x3b790d651e950497c7723d47b24e6f61534f7969",
          "topics": [
            "0xddf252ad1be2c89b69c2b068fc378daa952ba7f163c4a11628f55a4df523b3ef",
            "0x0000000000000000000000000eb5446a08a735b3448504ad44fdad995f1eb6b2",
            "0x000000000000000000000000000000000000000000000000000000000000dead"
          ],
          "data": "0x0000000000000000000000000000000000000000000000056bc75e2d63100000",
          "blockHash": "0xd2e4458757603ff70a58482fa025b7177c98ba985a13fd81d8721eb476506cd4",
          "blockNumber": "0x175d406",
          "blockTimestamp": "0x69988937",
          "transactionHash": "0x039db6e459f5f86012d45467de06be46760749565d268473cc5bf57a91c2ecc7",
          "transactionIndex": "0x144",
          "logIndex": "0x36b",
          "removed": false
        }
      ],
      "logsBloom": "0x00000000000010000000000000000000000000000000000000000000000000000000000000000000000000000000000000000000000000000000000020000000000000001000000000000008000000040000000000000000000000000000000008000000000000000000000000000080000000000000000000000010000000000000000000000000000004000000000000000000000000000000000000000000000000000000000000000000000000000000000000000000000000800000000000000402000000000000000000000000000000000000000000000000000000000000000000000000000000000000000000000000000000000000000000000000",
      "type": "0x2",
      "transactionHash": "0x039db6e459f5f86012d45467de06be46760749565d268473cc5bf57a91c2ecc7",
      "transactionIndex": "0x144",
      "blockHash": "0xd2e4458757603ff70a58482fa025b7177c98ba985a13fd81d8721eb476506cd4",
      "blockNumber": "0x175d406",
      "gasUsed": "0xc955",
      "effectiveGasPrice": "0xaab316b",
      "blobGasUsed": "0x0",
      "from": "0x0eb5446a08a735b3448504ad44fdad995f1eb6b2",
      "to": "0x3b790d651e950497c7723d47b24e6f61534f7969",
      "contractAddress": null
    }
  ],
  "libraries": [],
  "pending": [],
  "returns": {},
  "timestamp": 1771604283737,
  "chain": 1,
  "commit": "a12cf91"
}